:020000040000FA
:0300000002006398
:1000130002015C00000080FB12006CB900030200C7
:100023005DE4900001783579018002F0A3D8FCD912
:10003300FA900035AA82AB8390006F780279018031
:1000430015E493A3AC82AD838A828B83F0A3AA8247
:10005300AB838C828D83D8E9D9E71200D6120016C0
:1000630075D0007581BF02001B7901220143FE0395
:10007300C290C2912253C6BFE59EA2E640FA53C680
:10008300B875F10075F33C53FF3F43868043C50BBE
:1000930043C2D8C2E943864043A88422EEC0E07835
:1000A300007900801E8A828B83E0F5C18A828B836C
:1000B300A3AA82AB83A2E950FCC2E9E82401F8E9D0
:1000C3003400F9C3E89CE99DA2D265D03340D6D071
:1000D300E0FE22120070120078803A90003574031B
:1000E300F0C2909000337400F0900035E064037028
:1000F30024D2915386BF900034E0FC7D007A017BCB
:100103000012009F4386409000357401F090003444
:100113007400F0C291900035E0640170CCD29090ED
:100123000033E060C4900033E0642360AE90003499
:10013300E0C3943250A5900033E0C0E0900034E077
:10014300F87900740128F582740039F583D0E0F062
:10015300900034E02401F0808AC0E0C0D0C082C0A7
:1001630083C28BE5C1900033F0D083D082D0D0D04E
:02017300E03278
:040000050000006394
:00000001FF
